{
  "transactions": [
    {
      "hash": "0x37eaeeca7cf8a969ab41bdd926450410efcf432e5b82c11e1652aa08582f1da5",
      "transactionType": "CALL",
      "contractName": null,
      "contractAddress": "0x779877a7b0d9e8603169ddbd7836e478b4624789",
      "function": "transferAndCall(address,uint256,bytes)",
      "arguments": [
        "0xd691f04bc0C9a24Edb78af9E005Cf85768F694C9",
        "3000000000000000000",
        "0x359255700b9e0f84f9084955ae803df47462f544caa2c867fe1453b08593ed25"
      ],
      "transaction": {
        "from": "0x9ac2c7f280d4204c7148032b2de1c21c2175a84f",
        "to": "0x779877a7b0d9e8603169ddbd7836e478b4624789",
        "gas": "0xeb48",
        "value": "0x0",
        "input": "0x4000aea0000000000000000000000000d691f04bc0c9a24edb78af9e005cf85768f694c900000000000000000000000000000000000000000000000029a2241af62c000000000000000000000000000000000000000000000000000000000000000000600000000000000000000000000000000000000000000000000000000000000020359255700b9e0f84f9084955ae803df47462f544caa2c867fe1453b08593ed25",
        "nonce": "0x7",
        "chainId": "0xaa36a7"
      },
      "additionalContracts": [],
      "isFixedGasLimit": false
    }
  ],
  "receipts": [
    {
      "status": "0x1",
      "cumulativeGasUsed": "0xc6b65d",
      "logs": [
        {
          "address": "0x779877a7b0d9e8603169ddbd7836e478b4624789",
          "topics": [
            "0xddf252ad1be2c89b69c2b068fc378daa952ba7f163c4a11628f55a4df523b3ef",
            "0x0000000000000000000000009ac2c7f280d4204c7148032b2de1c21c2175a84f",
            "0x000000000000000000000000d691f04bc0c9a24edb78af9e005cf85768f694c9"
          ],
          "data": "0x00000000000000000000000000000000000000000000000029a2241af62c0000",
          "blockHash": "0x38b2622924db09c98fc0449c6ad7e654128100d81373a068b5e3c42c73e8e5f5",
          "blockNumber": "0x67f39e",
          "transactionHash": "0x37eaeeca7cf8a969ab41bdd926450410efcf432e5b82c11e1652aa08582f1da5",
          "transactionIndex": "0x1b",
          "logIndex": "0x3c",
          "removed": false
        },
        {
          "address": "0x779877a7b0d9e8603169ddbd7836e478b4624789",
          "topics": [
            "0xe19260aff97b920c7df27010903aeb9c8d2be5d310a2c67824cf3f15396e4c16",
            "0x0000000000000000000000009ac2c7f280d4204c7148032b2de1c21c2175a84f",
            "0x000000000000000000000000d691f04bc0c9a24edb78af9e005cf85768f694c9"
          ],
          "data": "0x00000000000000000000000000000000000000000000000029a2241af62c000000000000000000000000000000000000000000000000000000000000000000400000000000000000000000000000000000000000000000000000000000000020359255700b9e0f84f9084955ae803df47462f544caa2c867fe1453b08593ed25",
          "blockHash": "0x38b2622924db09c98fc0449c6ad7e654128100d81373a068b5e3c42c73e8e5f5",
          "blockNumber": "0x67f39e",
          "transactionHash": "0x37eaeeca7cf8a969ab41bdd926450410efcf432e5b82c11e1652aa08582f1da5",
          "transactionIndex": "0x1b",
          "logIndex": "0x3d",
          "removed": false
        }
      ],
      "logsBloom": "0x00000004000000000000000000000000000000000000000000000000020000000000000000000000000000000000000000000000000008000000000000000000000000000000000000000008000000000000000000000000000020000000020000000000000000000000000000000000000000000000000000000010000000000000000000000000000000000000802000000020400000000000000000000000000000000000000000000000000000000000000000000000000000000000008000000002000000000000000000000000000000000000000100000000000000000000000000000000000000400000000000000000000000000000000000000000",
      "type": "0x2",
      "transactionHash": "0x37eaeeca7cf8a969ab41bdd926450410efcf432e5b82c11e1652aa08582f1da5",
      "transactionIndex": "0x1b",
      "blockHash": "0x38b2622924db09c98fc0449c6ad7e654128100d81373a068b5e3c42c73e8e5f5",
      "blockNumber": "0x67f39e",
      "gasUsed": "0xa0e1",
      "effectiveGasPrice": "0x49faf42adb",
      "from": "0x9ac2c7f280d4204c7148032b2de1c21c2175a84f",
      "to": "0x779877a7b0d9e8603169ddbd7836e478b4624789",
      "contractAddress": null
    }
  ],
  "libraries": [],
  "pending": [],
  "returns": {},
  "timestamp": 1728036026,
  "chain": 11155111,
  "commit": "5eac109"
}